:1000000014C02DC02CC02BC02AC029C0C7C028C016
:1000100026C025C024C023C022C021C020C01FC0CC
:100020001EC01DC01CC01BC01AC011241FBECFEDB6
:10003000CDBF10E0A0E6B0E0E6EDF2E003C0C89569
:1000400031960D92A236B107D1F710E0A2E6B0E0EA
:1000500001C01D92A33BB107E1F719D13AC1D0CF3E
:100060001F920F920FB60F9211242F933F934F932D
:100070005F936F937F938F939F93AF93BF93EF9310
:10008000FF93CF93DF930F92CDB7DEB7EED08BB156
:1000900089838CB1998194FF08C01092A8001092B6
:1000A000A70081E08093A90038C09091A900913009
:1000B00019F0923089F508C0882311F482E001C05C
:1000C00080E08093A90028C02091A7003091A8006B
:1000D0002F5F3F4F3093A8002093A7002091A700E7
:1000E0003091A8002115310571F090E0019625E0CE
:1000F000959587952A95E1F7E091A700F091A800E2
:10010000EA59FF4F80838091A7009091A800803426
:10011000910510F01092A900B1D00F90DF91CF910E
:10012000FF91EF91BF91AF919F918F917F916F91CF
:100130005F914F913F912F910F900FBE0F901F90A5
:1001400018951092A8001092A70012B883E089B900
:100150001BB88EE083B982E98AB91092A90008958C
:100160001092AA0081E08093AB0083E08093AC0002
:1001700087E08093AD008FE08093AE008FE18093A5
:10018000AF008FE38093B0008FE78093B1008FEFD3
:100190008093B200089580E090E008951F920F923E
:1001A0000FB60F9211242F933F934F935F938F932A
:1001B0009F93EF93FF9320E030E040E0E0916000F8
:1001C000F0E083E0EE0FFF1F8A95E1F7E20FF31FE7
:1001D000E959FF4FE08150916400F0E0E655FF4F90
:1001E000808190E002C0959587955A95E2F78170DD
:1001F0009070022E02C0880F991F0A94E2F7482BD4
:100200002F5F3F4F28303105C9F6409548BB949881
:10021000949A809160008F5F80936000809160006D
:10022000883069F410926000809164008F5F809341
:10023000640080916400883011F410926400FF9192
:10024000EF919F918F915F914F913F912F910F90DF
:100250000FBE0F901F9018958A9A929881E090E0B7
:100260009093660080936500089580916500909159
:100270006600009709F4F0DF929A08958091650076
:1002800090916600009709F4E7DF9298089587B38C
:100290008FEF87BB88BBE0DFE8DF62DF8FEF95EA97
:1002A000AEE081509040A040E1F700C0000081B373
:1002B000886181BB949A939A93988B9882E083BFCC
:1002C00089B7826089BF8BE986BFD8DF3ADF78942F
:0602D000FFCFF894FFCF00
:0202D600010025
:00000001FF
